:020000040000FA
:020000007E2858
:06000A0082079034A034CF
:10001000603450340B11D83081006400CF080319CC
:1000200008000B1D1128CF0B0A2808007830CB00E0
:10003000CA016400051E0800CB0803190800CB03A1
:10004000031908000130CF000A20CA0A04304A020E
:10005000031D2C28CA012C284A08052086001928CF
:1000600008006430CB00CB0803194528CB030319E3
:1000700045280430CA080319CA00CA030230CF0059
:100080000A204A08052086003328860108004E0809
:10009000CF004C0885000A204E08053CCF008501A2
:1000A0000A20CD03031D472808000E30CC00033082
:1000B000CE000F30CD0047200F30CC001E30CD00D9
:1000C000472008000D30CC000530CE000F30CD00A9
:1000D000472008000D30CC000530CE000530CD00A3
:1000E000472016200130CD00472006187C288618AE
:1000F0007C2886197C28722831200800831285010B
:1001000086018316103085000F308600073081008D
:1001100083120D30CC000130CE000130CD00061C22
:10012000932855208928861D972855208928861CC4
:100130009B2862208928061D9F286A20892847203D
:0201400089280C
:00000001FF
